{
  "contractName": "Escrow",
  "abi": [
    {
      "inputs": [],
      "stateMutability": "nonpayable",
      "type": "constructor"
    },
    {
      "inputs": [
        {
          "internalType": "uint256",
          "name": "",
          "type": "uint256"
        },
        {
          "internalType": "address",
          "name": "",
          "type": "address"
        }
      ],
      "name": "approval",
      "outputs": [
        {
          "internalType": "bool",
          "name": "",
          "type": "bool"
        }
      ],
      "stateMutability": "view",
      "type": "function",
      "constant": true
    },
    {
      "inputs": [
        {
          "internalType": "uint256",
          "name": "",
          "type": "uint256"
        }
      ],
      "name": "buyer",
      "outputs": [
        {
          "internalType": "address",
          "name": "",
          "type": "address"
        }
      ],
      "stateMutability": "view",
      "type": "function",
      "constant": true
    },
    {
      "inputs": [
        {
          "internalType": "uint256",
          "name": "",
          "type": "uint256"
        }
      ],
      "name": "inspectionPassed",
      "outputs": [
        {
          "internalType": "bool",
          "name": "",
          "type": "bool"
        }
      ],
      "stateMutability": "view",
      "type": "function",
      "constant": true
    },
    {
      "inputs": [
        {
          "internalType": "uint256",
          "name": "",
          "type": "uint256"
        }
      ],
      "name": "inspector",
      "outputs": [
        {
          "internalType": "address",
          "name": "",
          "type": "address"
        }
      ],
      "stateMutability": "view",
      "type": "function",
      "constant": true
    },
    {
      "inputs": [
        {
          "internalType": "uint256",
          "name": "",
          "type": "uint256"
        }
      ],
      "name": "listings",
      "outputs": [
        {
          "internalType": "address",
          "name": "user",
          "type": "address"
        },
        {
          "internalType": "uint256",
          "name": "amount",
          "type": "uint256"
        },
        {
          "internalType": "uint256",
          "name": "timestamp",
          "type": "uint256"
        }
      ],
      "stateMutability": "view",
      "type": "function",
      "constant": true
    },
    {
      "inputs": [],
      "name": "owner",
      "outputs": [
        {
          "internalType": "address",
          "name": "",
          "type": "address"
        }
      ],
      "stateMutability": "view",
      "type": "function",
      "constant": true
    },
    {
      "inputs": [
        {
          "internalType": "uint256",
          "name": "",
          "type": "uint256"
        }
      ],
      "name": "seller",
      "outputs": [
        {
          "internalType": "address",
          "name": "",
          "type": "address"
        }
      ],
      "stateMutability": "view",
      "type": "function",
      "constant": true
    },
    {
      "inputs": [
        {
          "internalType": "uint256",
          "name": "_nftId",
          "type": "uint256"
        }
      ],
      "name": "depositEarnest",
      "outputs": [],
      "stateMutability": "payable",
      "type": "function",
      "payable": true
    },
    {
      "inputs": [
        {
          "internalType": "uint256",
          "name": "_nftId",
          "type": "uint256"
        },
        {
          "internalType": "address",
          "name": "_seller",
          "type": "address"
        },
        {
          "internalType": "address",
          "name": "_inspector",
          "type": "address"
        }
      ],
      "name": "listProperty",
      "outputs": [],
      "stateMutability": "nonpayable",
      "type": "function"
    },
    {
      "inputs": [
        {
          "internalType": "uint256",
          "name": "_nftId",
          "type": "uint256"
        },
        {
          "internalType": "bool",
          "name": "_passed",
          "type": "bool"
        }
      ],
      "name": "updateInspectionStatus",
      "outputs": [],
      "stateMutability": "nonpayable",
      "type": "function"
    },
    {
      "inputs": [
        {
          "internalType": "uint256",
          "name": "_nftId",
          "type": "uint256"
        }
      ],
      "name": "approveSale",
      "outputs": [],
      "stateMutability": "nonpayable",
      "type": "function"
    },
    {
      "inputs": [
        {
          "internalType": "uint256",
          "name": "_nftId",
          "type": "uint256"
        }
      ],
      "name": "finalizeSale",
      "outputs": [],
      "stateMutability": "nonpayable",
      "type": "function"
    },
    {
      "inputs": [],
      "name": "withdraw",
      "outputs": [],
      "stateMutability": "nonpayable",
      "type": "function"
    },
    {
      "inputs": [],
      "name": "getBalance",
      "outputs": [
        {
          "internalType": "uint256",
          "name": "",
          "type": "uint256"
        }
      ],
      "stateMutability": "view",
      "type": "function",
      "constant": true
    }
  ],
  "bytecode": "0x608060405234801561001057600080fd5b50336000806101000a81548173ffffffffffffffffffffffffffffffffffffffff021916908373ffffffffffffffffffffffffffffffffffffffff1602179055506115a7806100606000396000f3fe6080604052600436106100dd5760003560e01c80638da5cb5b1161007f578063aacdfe6f11610059578063aacdfe6f146102aa578063b848de35146102e7578063de74e57b14610324578063e740f77014610363576100dd565b80638da5cb5b1461022d5780639d0e5fd614610258578063aa92938014610281576100dd565b80633ccfd60b116100bb5780633ccfd60b1461015f5780634dd4acaf1461017657806357e4561d146101b35780635eed5fff146101f0576100dd565b806311e97396146100e257806312065fe01461010b57806314a72feb14610136575b600080fd5b3480156100ee57600080fd5b5061010960048036038101906101049190610fa7565b61037f565b005b34801561011757600080fd5b506101206104b6565b60405161012d9190611009565b60405180910390f35b34801561014257600080fd5b5061015d60048036038101906101589190611024565b6104be565b005b34801561016b57600080fd5b5061017461052a565b005b34801561018257600080fd5b5061019d60048036038101906101989190611024565b610621565b6040516101aa9190611060565b60405180910390f35b3480156101bf57600080fd5b506101da60048036038101906101d59190611024565b610654565b6040516101e79190611060565b60405180910390f35b3480156101fc57600080fd5b5061021760048036038101906102129190611024565b610687565b6040516102249190611096565b60405180910390f35b34801561023957600080fd5b506102426106a7565b60405161024f9190611060565b60405180910390f35b34801561026457600080fd5b5061027f600480360381019061027a91906110dd565b6106cb565b005b34801561028d57600080fd5b506102a860048036038101906102a39190611024565b61098c565b005b3480156102b657600080fd5b506102d160048036038101906102cc9190611024565b610c41565b6040516102de9190611060565b60405180910390f35b3480156102f357600080fd5b5061030e6004803603810190610309919061111d565b610c74565b60405161031b9190611096565b60405180910390f35b34801561033057600080fd5b5061034b60048036038101906103469190611024565b610ca3565b60405161035a9392919061115d565b60405180910390f35b61037d60048036038101906103789190611024565b610ced565b005b60008054906101000a900473ffffffffffffffffffffffffffffffffffffffff1673ffffffffffffffffffffffffffffffffffffffff163373ffffffffffffffffffffffffffffffffffffffff161461040d576040517f08c379a0000000000000000000000000000000000000000000000000000000008152600401610404906111f1565b60405180910390fd5b816003600085815260200190815260200160002060006101000a81548173ffffffffffffffffffffffffffffffffffffffff021916908373ffffffffffffffffffffffffffffffffffffffff160217905550806004600085815260200190815260200160002060006101000a81548173ffffffffffffffffffffffffffffffffffffffff021916908373ffffffffffffffffffffffffffffffffffffffff160217905550505050565b600047905090565b60016006600083815260200190815260200160002060003373ffffffffffffffffffffffffffffffffffffffff1673ffffffffffffffffffffffffffffffffffffffff16815260200190815260200160002060006101000a81548160ff02191690831515021790555050565b60008054906101000a900473ffffffffffffffffffffffffffffffffffffffff1673ffffffffffffffffffffffffffffffffffffffff163373ffffffffffffffffffffffffffffffffffffffff16146105b8576040517f08c379a00000000000000000000000000000000000000000000000000000000081526004016105af9061125d565b60405180910390fd5b60008054906101000a900473ffffffffffffffffffffffffffffffffffffffff1673ffffffffffffffffffffffffffffffffffffffff166108fc479081150290604051600060405180830381858888f1935050505015801561061e573d6000803e3d6000fd5b50565b60026020528060005260406000206000915054906101000a900473ffffffffffffffffffffffffffffffffffffffff1681565b60046020528060005260406000206000915054906101000a900473ffffffffffffffffffffffffffffffffffffffff1681565b60056020528060005260406000206000915054906101000a900460ff1681565b60008054906101000a900473ffffffffffffffffffffffffffffffffffffffff1681565b6004600083815260200190815260200160002060009054906101000a900473ffffffffffffffffffffffffffffffffffffffff1673ffffffffffffffffffffffffffffffffffffffff163373ffffffffffffffffffffffffffffffffffffffff161461076c576040517f08c379a0000000000000000000000000000000000000000000000000000000008152600401610763906112c9565b60405180910390fd5b806005600084815260200190815260200160002060006101000a81548160ff02191690831515021790555080156109885760016006600084815260200190815260200160002060006002600086815260200190815260200160002060009054906101000a900473ffffffffffffffffffffffffffffffffffffffff1673ffffffffffffffffffffffffffffffffffffffff1673ffffffffffffffffffffffffffffffffffffffff16815260200190815260200160002060006101000a81548160ff02191690831515021790555060016006600084815260200190815260200160002060006003600086815260200190815260200160002060009054906101000a900473ffffffffffffffffffffffffffffffffffffffff1673ffffffffffffffffffffffffffffffffffffffff1673ffffffffffffffffffffffffffffffffffffffff16815260200190815260200160002060006101000a81548160ff021916908315150217905550600060016000848152602001908152602001600020600101549050600060016000858152602001908152602001600020600101819055506003600084815260200190815260200160002060009054906101000a900473ffffffffffffffffffffffffffffffffffffffff1673ffffffffffffffffffffffffffffffffffffffff166108fc829081150290604051600060405180830381858888f19350505050158015610985573d6000803e3d6000fd5b50505b5050565b6005600082815260200190815260200160002060009054906101000a900460ff166109ec576040517f08c379a00000000000000000000000000000000000000000000000000000000081526004016109e390611335565b60405180910390fd5b6006600082815260200190815260200160002060006002600084815260200190815260200160002060009054906101000a900473ffffffffffffffffffffffffffffffffffffffff1673ffffffffffffffffffffffffffffffffffffffff1673ffffffffffffffffffffffffffffffffffffffff16815260200190815260200160002060009054906101000a900460ff16610abc576040517f08c379a0000000000000000000000000000000000000000000000000000000008152600401610ab3906113a1565b60405180910390fd5b6006600082815260200190815260200160002060006003600084815260200190815260200160002060009054906101000a900473ffffffffffffffffffffffffffffffffffffffff1673ffffffffffffffffffffffffffffffffffffffff1673ffffffffffffffffffffffffffffffffffffffff16815260200190815260200160002060009054906101000a900460ff16610b8c576040517f08c379a0000000000000000000000000000000000000000000000000000000008152600401610b839061140d565b60405180910390fd5b600060016000838152602001908152602001600020600101549050600060016000848152602001908152602001600020600101819055506003600083815260200190815260200160002060009054906101000a900473ffffffffffffffffffffffffffffffffffffffff1673ffffffffffffffffffffffffffffffffffffffff166108fc829081150290604051600060405180830381858888f19350505050158015610c3c573d6000803e3d6000fd5b505050565b60036020528060005260406000206000915054906101000a900473ffffffffffffffffffffffffffffffffffffffff1681565b60066020528160005260406000206020528060005260406000206000915091509054906101000a900460ff1681565b60016020528060005260406000206000915090508060000160009054906101000a900473ffffffffffffffffffffffffffffffffffffffff16908060010154908060020154905083565b60008054906101000a900473ffffffffffffffffffffffffffffffffffffffff1673ffffffffffffffffffffffffffffffffffffffff163373ffffffffffffffffffffffffffffffffffffffff1603610d7b576040517f08c379a0000000000000000000000000000000000000000000000000000000008152600401610d7290611479565b60405180910390fd5b60003411610dbe576040517f08c379a0000000000000000000000000000000000000000000000000000000008152600401610db5906114e5565b60405180910390fd5b6000600160008381526020019081526020016000206001015414610e17576040517f08c379a0000000000000000000000000000000000000000000000000000000008152600401610e0e90611551565b60405180910390fd5b336002600083815260200190815260200160002060006101000a81548173ffffffffffffffffffffffffffffffffffffffff021916908373ffffffffffffffffffffffffffffffffffffffff16021790555060405180606001604052803373ffffffffffffffffffffffffffffffffffffffff168152602001348152602001428152506001600083815260200190815260200160002060008201518160000160006101000a81548173ffffffffffffffffffffffffffffffffffffffff021916908373ffffffffffffffffffffffffffffffffffffffff160217905550602082015181600101556040820151816002015590505050565b600080fd5b6000819050919050565b610f2681610f13565b8114610f3157600080fd5b50565b600081359050610f4381610f1d565b92915050565b600073ffffffffffffffffffffffffffffffffffffffff82169050919050565b6000610f7482610f49565b9050919050565b610f8481610f69565b8114610f8f57600080fd5b50565b600081359050610fa181610f7b565b92915050565b600080600060608486031215610fc057610fbf610f0e565b5b6000610fce86828701610f34565b9350506020610fdf86828701610f92565b9250506040610ff086828701610f92565b9150509250925092565b61100381610f13565b82525050565b600060208201905061101e6000830184610ffa565b92915050565b60006020828403121561103a57611039610f0e565b5b600061104884828501610f34565b91505092915050565b61105a81610f69565b82525050565b60006020820190506110756000830184611051565b92915050565b60008115159050919050565b6110908161107b565b82525050565b60006020820190506110ab6000830184611087565b92915050565b6110ba8161107b565b81146110c557600080fd5b50565b6000813590506110d7816110b1565b92915050565b600080604083850312156110f4576110f3610f0e565b5b600061110285828601610f34565b9250506020611113858286016110c8565b9150509250929050565b6000806040838503121561113457611133610f0e565b5b600061114285828601610f34565b925050602061115385828601610f92565b9150509250929050565b60006060820190506111726000830186611051565b61117f6020830185610ffa565b61118c6040830184610ffa565b949350505050565b600082825260208201905092915050565b7f4f6e6c79206f776e65722063616e206c6973742070726f706572747900000000600082015250565b60006111db601c83611194565b91506111e6826111a5565b602082019050919050565b6000602082019050818103600083015261120a816111ce565b9050919050565b7f4f6e6c79206f776e65722063616e207769746864726177000000000000000000600082015250565b6000611247601783611194565b915061125282611211565b602082019050919050565b600060208201905081810360008301526112768161123a565b9050919050565b7f4e6f7420696e73706563746f7200000000000000000000000000000000000000600082015250565b60006112b3600d83611194565b91506112be8261127d565b602082019050919050565b600060208201905081810360008301526112e2816112a6565b9050919050565b7f496e7370656374696f6e206e6f74207061737365640000000000000000000000600082015250565b600061131f601583611194565b915061132a826112e9565b602082019050919050565b6000602082019050818103600083015261134e81611312565b9050919050565b7f4275796572206e6f7420617070726f7665640000000000000000000000000000600082015250565b600061138b601283611194565b915061139682611355565b602082019050919050565b600060208201905081810360008301526113ba8161137e565b9050919050565b7f53656c6c6572206e6f7420617070726f76656400000000000000000000000000600082015250565b60006113f7601383611194565b9150611402826113c1565b602082019050919050565b60006020820190508181036000830152611426816113ea565b9050919050565b7f41646d696e2063616e6e6f74206275792070726f706572747900000000000000600082015250565b6000611463601983611194565b915061146e8261142d565b602082019050919050565b6000602082019050818103600083015261149281611456565b9050919050565b7f4554482072657175697265640000000000000000000000000000000000000000600082015250565b60006114cf600c83611194565b91506114da82611499565b602082019050919050565b600060208201905081810360008301526114fe816114c2565b9050919050565b7f416c7265616479206465706f7369746564000000000000000000000000000000600082015250565b600061153b601183611194565b915061154682611505565b602082019050919050565b6000602082019050818103600083015261156a8161152e565b905091905056fea2646970667358221220c2ba69a4bcbf42d84394261207943707842e59951388ffcd17d570ee0d77c9e764736f6c63430008100033",
  "immutableReferences": {},
  "source": "// SPDX-License-Identifier: MIT\r\npragma solidity ^0.8.16;\r\n\r\ncontract Escrow {\r\n    address public owner;\r\n\r\n    constructor() {\r\n        owner = msg.sender;\r\n    }\r\n\r\n    struct Listing {\r\n        address user;\r\n        uint256 amount;\r\n        uint256 timestamp;\r\n    }\r\n\r\n    mapping(uint256 => Listing) public listings;\r\n\r\n    // Parties\r\n    mapping(uint256 => address) public buyer;\r\n    mapping(uint256 => address) public seller;\r\n    mapping(uint256 => address) public inspector;\r\n\r\n    // Status\r\n    mapping(uint256 => bool) public inspectionPassed;\r\n    mapping(uint256 => mapping(address => bool)) public approval;\r\n\r\n    // Deposit full ETH amount (allows any buyer except admin)\r\n    function depositEarnest(uint256 _nftId) public payable {\r\n        require(msg.sender != owner, \"Admin cannot buy property\");\r\n        require(msg.value > 0, \"ETH required\");\r\n        require(listings[_nftId].amount == 0, \"Already deposited\");\r\n\r\n        buyer[_nftId] = msg.sender; // dynamically set buyer\r\n\r\n        listings[_nftId] = Listing({\r\n            user: msg.sender,\r\n            amount: msg.value,\r\n            timestamp: block.timestamp\r\n        });\r\n    }\r\n\r\n    // Set roles (excluding lender)\r\n    function listProperty(\r\n        uint256 _nftId,\r\n        address _seller,\r\n        address _inspector\r\n    ) public {\r\n        require(msg.sender == owner, \"Only owner can list property\");\r\n        seller[_nftId] = _seller;\r\n        inspector[_nftId] = _inspector;\r\n    }\r\n\r\n    //  Inspector updates status AND finalizes sale automatically\r\n    function updateInspectionStatus(uint256 _nftId, bool _passed) public {\r\n        require(msg.sender == inspector[_nftId], \"Not inspector\");\r\n        inspectionPassed[_nftId] = _passed;\r\n\r\n        if (_passed) {\r\n            approval[_nftId][buyer[_nftId]] = true;\r\n            approval[_nftId][seller[_nftId]] = true;\r\n\r\n            uint256 amount = listings[_nftId].amount;\r\n            listings[_nftId].amount = 0;\r\n            payable(seller[_nftId]).transfer(amount);\r\n        }\r\n    }\r\n\r\n    // Manual approval (optional, now unused)\r\n    function approveSale(uint256 _nftId) public {\r\n        approval[_nftId][msg.sender] = true;\r\n    }\r\n\r\n    // Manual finalize (unused now unless you want fallback option)\r\n    function finalizeSale(uint256 _nftId) public {\r\n        require(inspectionPassed[_nftId], \"Inspection not passed\");\r\n        require(approval[_nftId][buyer[_nftId]], \"Buyer not approved\");\r\n        require(approval[_nftId][seller[_nftId]], \"Seller not approved\");\r\n\r\n        uint256 amount = listings[_nftId].amount;\r\n        listings[_nftId].amount = 0;\r\n        payable(seller[_nftId]).transfer(amount);\r\n    }\r\n\r\n    // Owner-only fallback withdraw\r\n    function withdraw() public {\r\n        require(msg.sender == owner, \"Only owner can withdraw\");\r\n        payable(owner).transfer(address(this).balance);\r\n    }\r\n\r\n    function getBalance() public view returns (uint256) {\r\n        return address(this).balance;\r\n    }\r\n}\r\n",
  "sourcePath": "C:\\Users\\ajkac\\Desktop\\Urvi\\CN6035\\fresh-project\\contracts\\Escrow.sol",
  "compiler": {
    "name": "solc",
    "version": "0.8.16+commit.07a7930e.Emscripten.clang"
  },
  "schemaVersion": "3.4.13",
  "updatedAt": "2025-04-08T16:52:55.620Z",
  "networkType": "ethereum",
  "devdoc": {
    "kind": "dev",
    "methods": {},
    "version": 1
  },
  "userdoc": {
    "kind": "user",
    "methods": {},
    "version": 1
  }
}